:1000000011EF05F00000000000EF00F0000000001C
:0A0010000000000000000000F3D71C
:0E001C00ACB202D00000FCD774C0ADFF1200E1
:10002A0074C0C9FFC7B002D00000FCD7C9CF00F026
:02003A001200B2
:10003C00F250026EF29E0500FF6A0150FE6E0050F7
:08004C00FD6E02BEF28E1200EF
:0C005400060E0D6E0D2EFED700001200EF
:100060000FEE83F0EF50EFCF00F0009600C0EFFFEF
:0200700012007C
:100072000FEE83F0EF50EFCF00F0009400C0EFFFDF
:0200820012006A
:1000840036C070F037C071F038C072F039C073F008
:100094009E96C5869EB61FD036503710381039103C
:1000A40019E0000170517111721173110CE149C012
:1000B400E1FF4AC0E2FF030EE66E47C000F048C00D
:1000C40001F0BADF08D0010E0001705F000E715B11
:1000D400725B735BDFD70001C9CF6FF06E51000A0A
:1000E40002E1C58A01D0C59A9E96C58836C070F0D3
:1000F40037C071F038C072F039C073F09EB61FD0AB
:10010400365037103810391019E000017051711150
:10011400721173110CE149C0E1FF4AC0E2FF030E02
:10012400E66E47C000F048C001F086DF08D0010E3B
:100134000001705F000E715B725B735BDFD76FC091
:0401440000F01200B5
:100148009E966EC0C9FF36C06FF037C070F038C0D9
:1001580071F039C072F0C7A421D03650371038106A
:1001680039101BE000016F517011711172110EE10D
:1001780049C0E1FF4AC0E2FF040EE66E47C000F046
:1001880048C001F057DF010E006E3AD0010E0001A1
:100198006F5F000E705B715B725BDDD736C06FF00E
:1001A80037C070F038C071F039C072F09EB621D0F7
:1001B80036503710381039101BE000016F5170119C
:1001C800711172110EE149C0E1FF4AC0E2FF040E4D
:1001D800E66E47C000F048C001F02CDF010E006E4B
:1001E8000FD0010E00016F5F000E705B715B725BD8
:1001F800DDD7C5BC02D0006A03D0C584020E006EEC
:020208001200E2
:10020A006EC0C9FFC7B002D00000FCD7C9CF00F04A
:02021A001200D0
:10021C00010E00016C6F000E6D6F800E6A6F000E88
:10022C006B6F6A516B1123E00FDF0EDF0DDF0CDFFC
:10023C001ADF959409DF08DF6A516915006E000E0C
:10024C006B15016E0050011002E0958602D002DFA2
:10025C009596FADEF9DE95844B9083B404D04BA0CE
:10026C0001D001D0FAD76B336A336B9FDAD76C6B42
:10027C006D6BEADEE9DEF7DE9594E6DEE5DE95866B
:10028C00E3DEE2DEE1DEE0DE95844B9083B404D065
:10029C004BA001D001D0FAD76C6B6D6BD5DED4DEE0
:1002AC0083B66C81D1DED0DECFDECEDECDDECCDE11
:1002BC00CBDECADEC9DEC8DEC7DEC6DEC5DEC4DE06
:1002CC00C3DEC2DED0DE9594C5DE95966CC000F020
:0202DC0012000E
:1002DE009586B9DEB8DE9584B6DEB5DEBADE9596C5
:0A02EE00B2DEB1DEBFDE959412000F
:1002F800B3DE9596ABDEAADE95844B9083B404D02A
:100308004BA001D001D0FAD7A1DEA0DE9FDE9EDE91
:100318009DDE9CDE9BDE9ADE958698DE97DE1200D7
:0403280081941200AA
:10032C00818452C0E1FF53C0E2FFFF0EE66E50C065
:0A033C0000F051C001F07CDE120059
:10034600400E00016125006E52C0E1FF53C0E2FF7E
:1003560000C0E6FF50C000F051C001F06CDE52C094
:10036600E1FF53C0E2FF65C0E6FF50C000F051C098
:1003760001F061DE52C0E1FF53C0E2FF64C0E6FF58
:1003860050C000F051C001F056DE52C0E1FF53C02C
:10039600E2FF63C0E6FF50C000F051C001F04BDE43
:1003A60052C0E1FF53C0E2FF62C0E6FF50C000F05A
:1003B60051C001F040DE52C0E1FF53C0E2FF66C00B
:1003C600E6FF50C000F051C001F035DE0001676B5A
:1003D600686B52C0E1FF53C0E2FFFF0EE66E50C0ED
:1003E60000F051C001F027DE00C05FF00001674B4E
:1003F600682B800E0014016E0150000A07E0000E03
:10040600685D02E1640E675D01E2E3D75FC000F05C
:020416001200D2
:100418000001626BF00E5F14606F5FC061F06137BE
:100428006191613761916137619161376191F00E36
:10043800611751DF7E0E696FEDDE62516011696FE1
:1004480069856987E7DE020E0C6E4B0E0D6E0D2E68
:10045800FED70C2EFCD762516011696F6987DADE0E
:1004680062516111696F69856987D4DE020E0C6E6D
:100478004B0E0D6E0D2EFED70C2EFCD7625161115E
:10048800696F6987C7DE34DF5F50010A0AE1340EFD
:100498000C6EF10E0D6E0D2EFED70C2EFCD7000043
:0404A800000012003E
:1004AC00010E5E6E1CD05A04006E0050800F5F6E01
:1004BC00ADDF21D05A04006E0050C00F5F6EA6DF76
:1004CC001AD05A04006E0050940F5F6E9FDF13D049
:1004DC005A04006E0050D40F5F6E98DF0CD0595048
:1004EC00010AE1E05950020AE5E05950030AE9E03B
:1004FC005950040AEDE0F00E5B145C6E5BC05DF0CD
:10050C005D365D905D365D905D365D905D365D90DF
:10051C00F00E5D16DEDE7E0E0001696F79DE5E5038
:10052C005C10696F6985698773DE020E0C6E4B0E69
:10053C000D6E0D2EFED70C2EFCD75E505C10696F25
:10054C00698766DE030E0C6E970E0D6E0D2EFED7B0
:10055C000C2EFCD7000000005E505D10696F6985A1
:10056C00698756DE020E0C6E4B0E0D6E0D2EFED7ED
:10057C000C2EFCD75E505D10696F698749DEB6DEC4
:02058C0012005B
:10058E005A6A5B6A270E5B5C02E1100E5A5CD8B0A9
:10059E009AD0000E000A02E1000E591815E1BDDED8
:1005AE00010E0001616F626B636B646B656BFF0E16
:1005BE00666FC2DE00C05CF0B2DE5C50000A03E182
:1005CE00156A006A82D07CD0A8DE370E0001616FFA
:1005DE00626B636B646B656BFF0E666FADDE00C0A6
:1005EE005CF09DDE5C50010AD8A469D096DE290E1F
:1005FE000001616F000E626F000E636F000E646F7C
:10060E00400E656FFF0E666F97DE00C05CF087DEF2
:10061E005C50000A53E1000E000A02E1020E591866
:10062E0049E17BDE3A0E0001616F626B636B646BB6
:10063E00656BFF0E666F80DE00C05CF052C0E1FF9E
:10064E0053C0E2FFFF0EE66E50C000F051C001F045
:10065E00EEDC00C05DF052C0E1FF53C0E2FFFF0EC2
:10066E00E66E50C000F051C001F0E1DC52C0E1FF77
:10067E0053C0E2FFFF0EE66E50C000F051C001F015
:10068E00D6DC52C0E1FF53C0E2FFFF0EE66E50C053
:10069E0000F051C001F0CBDC42DE5C50000A09E1F3
:1006AE005DAC03D0040E156E02D0030E156E006AFB
:1006BE000CD004D0010E156E006A07D001D003D005
:0C06CE005A4A5B2A5FD7010E006E120032
:1006DA000A0E506E020E516E6E0E526E000E536E60
:1006EA002A0E4C6E000E4D6E740E4E6E000E4F6E3C
:1006FA00949E93929380C66A400EC76EC68A120071
:10070A00556AE8DD7E0E0001696F83DD040E0B6E0B
:10071A000C0E0C6E330E0D6E0D2EFED70C2EFCD762
:10072A000B2EFAD700000000300E5510696F69854C
:10073A0069876FDD020E0C6E4B0E0D6E0D2EFED705
:10074A000C2EFCD7300E5510696F698762DD020ED8
:10075A000B6E040E0C6EBA0E0D6E0D2EFED70C2EFD
:10076A00FCD70B2EFAD70000300E5510696F698539
:10077A0069874FDD020E0C6E4B0E0D6E0D2EFED7E5
:10078A000C2EFCD7300E5510696F698742DD020EB8
:10079A000B6E040E0C6EBA0E0D6E0D2EFED70C2EBD
:1007AA00FCD70B2EFAD70000300E5510696F6985F9
:1007BA0069872FDD020E0C6E4B0E0D6E0D2EFED7C5
:1007CA000C2EFCD7300E5510696F698722DD020E98
:1007DA000B6E040E0C6EBA0E0D6E0D2EFED70C2E7D
:1007EA00FCD70B2EFAD70000200E5510696F6985C9
:1007FA0069870FDD020E0C6E4B0E0D6E0D2EFED7A5
:10080A000C2EFCD7200E5510696F698702DD6FDD4B
:10081A00020E0B6E040E0C6EBA0E0D6E0D2EFED766
:10082A000C2EFCD70B2EFAD70000280E5F6EEFDDD8
:08083A00060E5F6EECDD1200FA
:100842000900F5CFE6FF0006FBE10106F9E112001F
:10085200050E156E939469DD556A566A000E565C54
:1008620002E10A0E555C0FE252C0E1FF53C0E2FF03
:10087200FF0EE66E50C000F051C001F01EEC00F019
:10088200554A562AEBD74FDD0001616B626B636BF1
:10089200646B656B950E666F55DD00C057F045DDE4
:1008A2005750010A03E0010E006E76D03CDD080EBF
:1008B2000001616FAA0E626F010E636F000E646F1A
:1008C200656F870E666F3EDD00C057F052C0E1FFD4
:1008D20053C0E2FFFF0EE66E50C000F051C001F0BF
:1008E2001EEC00F052C0E1FF53C0E2FFFF0EE66EC5
:1008F20050C000F051C001F01EEC00F052C0E1FF08
:1009020053C0E2FFFF0EE66E50C000F051C001F08E
:100912001EEC00F052C0E1FF53C0E2FFFF0EE66E94
:1009220050C000F051C001F01EEC00F0FEDC575048
:10093200010A08E0010E596E29DE005202E0596AEE
:1009420025DE03D0020E596E21DE000E000A02E1FE
:10095200050E151803E1020E006E1ED0000E000AED
:1009620002E1040E151817E0DEDC100E0001616FC3
:10097200000E626F020E636F000E646F656FFF0EF2
:10098200666FE0DC00C057F0D0DC5750000A03E08D
:0A099200030E006E01D0006A12008F
:10099C0057C0E9FF58C0EAFFEE520FE055C059F0BE
:1009AC0056C05AF057C0E9FF58C0EAFFEECF5BF0D3
:0C09BC0077DD562A574A582AEBD7120064
:1009C8000A0E506E020E516E6E0E526E000E536E6F
:1009D8002A0E4C6E000E4D6E740E4E6E000E4F6E4B
:1009E800949E5550040A02E1938201D09392938019
:1009F800C66AC79CC79E5550C6125750C612565055
:100A0800C712575205E05850000AD8B4C78C03D013
:0A0A18005852D8A4C78CC68A1200F9
:100A220092EC05F00F0EC112070EB412926A210E5B
:100A3200936E946A956A806A816A400E826E836AB6
:100A420063DE0C0E5F6EE7DC010E5F6EE4DC44DEFB
:100A5200020E556E566A576A010E586EB4DF030EC7
:100A62000C6E970E0D6E0D2EFED70C2EFCD70000CD
:100A72000000010E5F6ECFDC010E556E010E566E48
:100A8200160E576E000E586E88DFE2DE00C054F07C
:100A9200660E0B6E760E0C6EC10E0D6E0D2EFED70F
:100AA2000C2EFCD70B2EFAD75452E3E1010E5F6EE7
:100AB200B2DC010E556E010E566E250E576E000EFB
:100AC200586E6BDF020E556E010E566E3A0E576E61
:100AD200000E586E62DF660E0B6E760E0C6EC10E45
:100AE2000D6E0D2EFED70C2EFCD70B2EFAD7FFD78C
:100B240010EE15F0320E006E010E016EF20EF66E2E
:0E0B34000A0EF76E000EF86E21EC04F01200AF
:010AF2000003
:0F0AF3004E414F20454E434F4E545241444F0009
:100B020043415254414F2044455445435441444F7C
:010B120000E2
:040B130000000000DE
:0D0B1700494E494349414C495A41444F0061
:020000040030CA
:0E000000000C1F1EFF8381FF0FC00FE00F409A
:00000001FF
